:100000000C945E000C9486000C9486000C94860080
:100010000C9486000C9486000C9486000C94860048
:100020000C9486000C9486000C9486000C94860038
:100030000C9486000C9486000C9486000C94860028
:100040000C9455020C9486000C94C5020C949F02EB
:100050000C9486000C9486000C9486000C94860008
:100060000C9486000C9486000000000024002700F9
:100070002A0000000000250028002B0004040404CE
:100080000404040402020202020203030303030342
:10009000010204081020408001020408102001021F
:1000A00004081020000000080002010000030407FB
:1000B0000000000000000000F702FA0411241FBE37
:1000C000CFEFD8E0DEBFCDBF21E0AEE2B1E001C0AE
:1000D0001D92AE3DB207E1F711E0A0E0B1E0E8EA21
:1000E000FEE002C005900D92AE32B107D9F710E0E4
:1000F000CDE5D0E004C02197FE010E944605CC3535
:10010000D107C9F70E9432030C9447070C940000F2
:10011000E1EBF0E02491EDE9F0E09491E9E8F0E022
:10012000E491EE23C9F0222339F0233001F1A8F441
:10013000213019F1223029F1F0E0EE0FFF1FEE58C7
:10014000FF4FA591B4912FB7F894EC91811126C07F
:1001500090959E239C932FBF08952730A9F02830B7
:10016000C9F0243049F7209180002F7D03C02091F1
:1001700080002F7720938000DFCF24B52F7724BD18
:10018000DBCF24B52F7DFBCF2091B0002F772093BC
:10019000B000D2CF2091B0002F7DF9CF9E2BDACFC7
:1001A0003FB7F8948091330190913401A0913501CB
:1001B000B091360126B5A89B05C02F3F19F00196D6
:1001C000A11DB11D3FBFBA2FA92F982F8827BC01B1
:1001D000CD01620F711D811D911D42E0660F771FD9
:1001E000881F991F4A95D1F70895AF92BF92CF9279
:1001F000DF92EF92FF920F931F93CF93DF936C01E7
:100200007B018B01040F151FEB015E01AE18BF08C7
:10021000C017D10759F06991D601ED91FC91019079
:10022000F081E02DC6010995892B79F7C501DF9191
:10023000CF911F910F91FF90EF90DF90CF90BF90E3
:10024000AF900895FC01538D448D252F30E0842F0D
:1002500090E0821B930B541710F0CF9608950197EE
:100260000895FC01918D828D981761F0A28DAE0FDB
:10027000BF2FB11D5D968C91928D9F5F9F73928F62
:1002800090E008958FEF9FEF0895FC01918D828D8E
:10029000981731F0828DE80FF11D858D90E008955B
:1002A0008FEF9FEF0895FC01918D228D892F90E0B3
:1002B000805C9F4F821B91098F739927089587E374
:1002C00091E00E94530121E0892B09F420E0822F64
:1002D000089580E090E0892B29F00E945F01811150
:1002E0000C9400000895FC01A48DA80FB92FB11D36
:1002F000A35ABF4F2C91848D90E001968F7399275C
:10030000848FA689B7892C93A089B1898C91837039
:1003100080648C93938D848D981306C00288F38932
:10032000E02D80818F7D80830895EF92FF920F935F
:100330001F93CF93DF93EC0181E0888F9B8D8C8D91
:1003400098131AC0E889F989808185FF15C09FB785
:10035000F894EE89FF896083E889F9898081837048
:10036000806480839FBF81E090E0DF91CF911F91F7
:100370000F91FF90EF900895F62E0B8D10E00F5F18
:100380001F4F0F731127E02E8C8D8E110CC00FB6EE
:1003900007FCFACFE889F989808185FFF5CFCE0186
:1003A0000E947301F1CFEB8DEC0FFD2FF11DE35A8D
:1003B000FF4FF0829FB7F8940B8FEA89FB89808109
:1003C0008062CFCFCF93DF93EC01888D8823B9F083
:1003D000AA89BB89E889F9898C9185FD03C0808150
:1003E00086FD0DC00FB607FCF7CF8C9185FFF2CFCD
:1003F000808185FFEDCFCE010E947301E9CFDF91AF
:10040000CF9108950F931F93CF93DF93EC018881D1
:100410009981009759F02A813B812617370730F0E0
:1004200081E0DF91CF911F910F9108958B016F5F54
:100430007F4F0E947106009759F0998388831B8330
:100440000A832C813D81232B59F7FC011082E8CFD0
:1004500080E0E7CFEF92FF920F931F93CF93DF934C
:10046000EC017B018A01BA010E94020228813981D4
:10047000811114C02115310519F0C9010E94E80548
:10048000198218821D821C821B821A82CE01DF9182
:10049000CF911F910F91FF90EF9008951D830C83D2
:1004A000B701C9010E944007F1CF1F920F920FB60A
:1004B0000F9211242F933F938F939F93AF93BF93EA
:1004C00080912F0190913001A0913101B0913201C2
:1004D00030912E0123E0230F2D3758F50196A11DF1
:1004E000B11D20932E0180932F0190933001A09392
:1004F0003101B09332018091330190913401A09188
:100500003501B09136010196A11DB11D80933301D3
:1005100090933401A0933501B0933601BF91AF9110
:100520009F918F913F912F910F900FBE0F901F9031
:10053000189526E8230F0296A11DB11DD2CF1F9258
:100540000F920FB60F9211242F933F934F935F9307
:100550006F937F938F939F93AF93BF93EF93FF938B
:1005600087E391E00E947301FF91EF91BF91AF91FA
:100570009F918F917F916F915F914F913F912F91BB
:100580000F900FBE0F901F9018951F920F920FB6ED
:100590000F9211242F938F939F93EF93FF93E091EA
:1005A0004701F09148018081E0914D01F0914E01A9
:1005B00082FD1BC09081809150018F5F8F732091CD
:1005C0005101821741F0E0915001F0E0E95CFE4FEB
:1005D000958F80935001FF91EF919F918F912F9173
:1005E0000F900FBE0F901F9018958081F4CFE7E316
:1005F000F1E01382128288EE93E0A0E0B0E0848301
:100600009583A683B7838AE091E09183808385EC0C
:1006100090E09587848784EC90E09787868780ECCC
:1006200090E0918B808B81EC90E0938B828B82ECBD
:1006300090E0958B848B86EC90E0978B868B118E67
:10064000128E138E148EE4EDF1E01182108213826B
:1006500012821582148250E040E065E271E0CF0121
:100660000C942A02CF93DF9300D000D000D0CDB7F6
:10067000DEB7789484B5826084BD84B5816084BD22
:1006800085B5826085BD85B5816085BD80916E0030
:10069000816080936E001092810080918100826061
:1006A000809381008091810081608093810080919E
:1006B00080008160809380008091B100846080938D
:1006C000B1008091B00081608093B00080917A0089
:1006D000846080937A0080917A00826080937A00AF
:1006E00080917A00816080937A0080917A0080689E
:1006F00080937A001092C100EDE9F0E02491E9E8DE
:10070000F0E08491882399F090E0880F991FFC0114
:10071000E859FF4FA591B491FC01EE58FF4F859128
:1007200094918FB7F894EC91E22BEC938FBFE0910A
:100730004701F091480182E08083E0914301F0910C
:1007400044011082E0914501F09146018FEC8083D5
:1007500010924F01E0914B01F0914C0186E08083B3
:10076000E0914901F0914A01808180618083E091AC
:100770004901F0914A01808188608083E0914901BC
:10078000F0914A01808180688083E0914901F09175
:100790004A0180818F7D808390E0A92E90E0B92E60
:1007A00087E391E00E945301892B09F44BC00E941A
:1007B000D0002B013C018AE0C82ED12CE12CF12C79
:1007C0000E94D0006419750986099709683E734034
:1007D00081059105A8F321E0C21AD108E108F108CA
:1007E00088EE480E83E0581E611C711CC114D104B0
:1007F000E104F10429F787E391E00E943101898344
:100800001A820091D8011091D9010F5F1F4FB801D2
:1008100084ED91E00E940202882311F22091D4011C
:100820003091D5018091D8019091D901BE016F5FBF
:100830007F4F820F931F0E9440071093D9010093AE
:10084000D801AECF0091D8011091D9010115110541
:1008500009F470C0C090D401D090D5017601C114C4
:10086000D10409F074C01A8219821C821B821E8274
:100870001D824AE050E068E171E0CE0101960E94DD
:100880002A02E090D401F090D501E114F10409F4BA
:100890009AC00091D8011091D90101151105B9F044
:1008A0008D819E81080F191FB801CE0101960E940B
:1008B0000202882309F487C029813A818D819E81B3
:1008C000B701820F931F0E9440071E830D834D8145
:1008D0005E8169817A8187E391E00E94F50042E0C0
:1008E00050E063E271E087E391E00E94F5008981C6
:1008F0009A81009711F00E94E8058091D8019091AB
:10090000D901892B79F00091D4011091D50166E2CB
:1009100071E0C8010E943707892B09F061C081E0AE
:100920000E94880050E040E065E271E084ED91E0D3
:100930000E942A02A114B10409F432CF0E945F017F
:10094000882309F42DCF0E9400002ACF73013701BC
:10095000FFEF6F1A7F0AF7018081082E000C990BB8
:100960000E940305892B91F7015011090C0D1D1DE3
:10097000F8018081082E000C990B0E940305892B39
:1009800031F00E151F0518F001501109F1CFA80123
:100990004F5F5F4F4E195F095093D9014093D801C3
:1009A000CE14DF0420F4B701C6010E942E07E091A7
:1009B000D401F091D5018091D8019091D901E80F2F
:1009C000F91F108250CF89819A81009711F00E94FF
:1009D000E8051A8219821E821D821C821B8277CF33
:1009E00069E271E0C8010E943707892B09F09ACFAC
:1009F00080E096CF8091D4019091D501009711F0BD
:100A00000C94E805089591110C940C05803219F0AE
:100A100089508550C8F708959927882708952F92FF
:100A20003F924F925F926F927F928F929F92AF927E
:100A3000BF92CF92DF92EF92FF920F931F93CF93CB
:100A4000DF93CDB7DEB7CA1BDB0B0FB6F894DEBF62
:100A50000FBECDBF09942A88398848885F846E8488
:100A60007D848C849B84AA84B984C884DF80EE80D2
:100A7000FD800C811B81AA81B981CE0FD11D0FB6DB
:100A8000F894DEBF0FBECDBFED010895EE0FFF1F3E
:100A90000590F491E02D09940F931F93CF93DF936A
:100AA0008230910510F482E090E0E091DC01F09159
:100AB000DD0130E020E0B0E0A0E0309799F42115AE
:100AC000310509F44AC0281B390B24303105D8F50B
:100AD0008A819B816115710589F1FB019383828372
:100AE000FE0111C0408151810281138148175907CD
:100AF000E0F04817590799F4109761F012960C939B
:100B0000129713961C933296CF01DF91CF911F91CC
:100B10000F9108950093DC011093DD01F4CF2115AE
:100B2000310551F04217530738F0A901DB019A0152
:100B3000BD01DF01F801C1CFEF01F9CF9093DD01D5
:100B40008093DC01CDCFFE01E20FF31F81939193DF
:100B50002250310939832883D7CF2091DA0130918F
:100B6000DB01232B41F420910201309103013093EA
:100B7000DB012093DA012091000130910101211560
:100B8000310541F42DB73EB7409104015091050164
:100B9000241B350BE091DA01F091DB01E217F3073A
:100BA000A0F42E1B3F0B2817390778F0AC014E5FDD
:100BB0005F4F2417350748F04E0F5F1F5093DB013E
:100BC0004093DA01819391939FCFF0E0E0E09CCFD6
:100BD000CF93DF930097E9F0FC01329713821282E2
:100BE000A091DC01B091DD01ED0130E020E0109733
:100BF000A1F420813181820F931F2091DA0130917D
:100C0000DB012817390709F061C0F093DB01E0939D
:100C1000DA01DF91CF910895EA01CE17DF07E8F5F9
:100C20004A815B819E0141155105B1F7E901FB83C2
:100C3000EA8349915991C40FD51FEC17FD0761F460
:100C4000808191810296840F951FE90199838883A1
:100C5000828193819B838A83F0E0E0E012968D91FC
:100C60009C9113970097B9F52D913C911197CD0167
:100C70000296820F931F2091DA013091DB01281731
:100C8000390739F6309751F51092DD011092DC01E9
:100C9000B093DB01A093DA01BCCFD383C283408140
:100CA0005181840F951FC817D90761F44E5F5F4FBC
:100CB00088819981480F591F518340838A819B8184
:100CC000938382832115310509F0B0CFF093DD01C4
:100CD000E093DC019ECFFD01DC01C0CF13821282C4
:100CE000D7CFB0E0A0E0E7E7F6E00C9411058C0167
:100CF000009751F4CB010E944C058C01C801CDB77F
:100D0000DEB7E0E10C942D05FC01E60FF71F9C0116
:100D100022503109E217F30708F49DC0D901CD91A3
:100D2000DC911197C617D70798F0C530D10530F37D
:100D3000CE0104978617970708F3C61BD70B229797
:100D4000C193D1936D937C93CF010E94E805D6CFD8
:100D50005B01AC1ABD0A4C018C0E9D1EA091DC01FA
:100D6000B091DD01512C412CF12CE12C109731F583
:100D70008091DA019091DB018815990509F05CC03A
:100D80004616570608F058C0809100019091010165
:100D9000009741F48DB79EB7409104015091050131
:100DA000841B950BE817F90708F055C0F093DB0199
:100DB000E093DA01F90171836083A0CF8D919C915A
:100DC000119712966C90129713967C901397A81512
:100DD000B90559F56C0142E0C40ED11CCA14DB04FC
:100DE00020F1AC014A195B09DA011296159780F0DF
:100DF0006282738251834083D9016D937C93E114A5
:100E0000F10471F0D7011396FC93EE93129776CF0D
:100E100022968C0F9D1FF90191838083F301EFCF00
:100E2000F093DD01E093DC0169CF4816590608F420
:100E30002C017D01D3019ACFCB010E944C057C018E
:100E4000009749F0AE01B8010E942E07C8010E9428
:100E5000E805870153CF10E000E050CFFB01DC0133
:100E600002C001900D9241505040D8F70895FB0107
:100E7000DC018D91019080190110D9F3990B08952F
:100E8000FB01DC0101900D920020E1F7089510E0D4
:100E9000CDE5D0E004C0FE010E9446052196CE3586
:080EA000D107C9F7F894FFCF58
:100EA8000000DE018000000000009501F50022012D
:100EB800E201530131014501526563656976656454
:0E0EC8003A20000D0A004F4E004F4646000033
:00000001FF
